S01500006E75625F6C6F6E6772616E67652E73726563AE
S11300000C9434000C9446000C9446000C94460066
S11300100C9446000C9446000C9446000C94460044
S11300200C9446000C9446000C9446000C94460034
S11300300C9446000C9446000C9446000C94460024
S11300400C9446000C9446000C94B7000C944600A3
S11300500C9446000C9446000C9446000C94460004
S11300600C9446000C94460011241FBECFEFD8E038
S1130070DEBFCDBF23E0A0E0B1E001C01D92A430FB
S1130080B207E1F70E949F000C94D5000C94000085
S11300909093C5008093C40082E28093C00088E9F5
S11300A08093C1008EE08093C2000895CF93DF93C4
S11300B0462F50E0141615069CF470910001972FFA
S11300C020E030E0E92FF0E0EC5FFD4F80832F5F0C
S11300D03F4F9F5F24173507A9F7670F609300010F
S11300E0A091010180910001A817A9F0E0ECF0E0D3
S11300F0C6ECD0E0808185FFFDCFB0E0AC5FBD4FA2
S11301008C918883A0910101AF5FA093010180913C
S113011000018A13EFCFDF91CF91089590910301ED
S113012080910201981749F0E92FF0E0EC5FFE4F4F
S113013080819F5F90930301089580E008957894EF
S113014083E390E00E9448009091030180910201B2
S1130150981731F00E948E0061E090E00E945600F2
S11301608FEC97E00197F1F700C00000EDCF1F92EC
S11301700F920FB60F9211248F939F93EF93FF93D7
S1130180809102019091C600E82FF0E0EC5FFE4FF1
S113019090838F5F80930201FF91EF919F918F91E4
S11101A00F900FBE0F901F901895F894FFCF8C
S9030000FC
