S01500006E75625F6C6F6E6772616E67652E73726563AE
S11300000C9434000C9446000C9446000C94460066
S11300100C9446000C9446000C9446000C94460044
S11300200C9446000C9446000C9446000C94460034
S11300300C9446000C9446000C9446000C94460024
S11300400C9446000C9446000C94FA000C94460060
S11300500C94D6000C9446000C9446000C94460074
S11300600C9446000C94460011241FBECFEFD8E038
S1130070DEBFCDBF23E0A0E0B1E001C01D92A430FB
S1130080B207E1F70E94A2000C9418010C9400003E
S11300909093C5008093C40082E28093C00088E9F5
S11300A08093C1008EE08093C20008959091000176
S11300B0E92FF0E0EC5FFD4F80839F5F9093000198
S11300C008950F931F93CF93DF93662351F08C0110
S11300D0EC01060F111D89910E945600C017D1072B
S11300E0D1F7A091010180910001A817A9F0E0ECDB
S11300F0F0E0C6ECD0E0808185FFFDCFB0E0AC5FDE
S1130100BD4F8C918883A0910101AF5FA093010141
S1130110809100018A13EFCFDF91CF911F910F914E
S113012008959091030180910201981749F0E92FF5
S1130130F0E0EC5FFE4F80819F5F90930301089590
S113014080E00895CF93DF93CDB7DEB7C456D109CD
S11301500FB6F894DEBF0FBECDBF78948CE090E06C
S11301600E94480000E010E0909103018091020198
S11301709817A9F00E949100E1E0F0E0EC0FFD1F58
S1130180E00FF11F80830F5F1F4F0436110539F410
S113019064E6CE0101960E94610000E010E083EC69
S11301A099E00197F1F700C00000DECF1F920F9293
S11301B00FB60F9211248F93EF93FF938DE58093E5
S11301C0C600E091010180910001E81759F0F0E0C8
S11301D0EC5FFD4F80818093C600809101018F5FA9
S11301E080930101FF91EF918F910F900FBE0F90BB
S11301F01F9018951F920F920FB60F9211248F9390
S11302009F93EF93FF93809102019091C600E82F92
S1130210F0E0EC5FFE4F90838F5F80930201FF91CB
S1130220EF919F918F910F900FBE0F901F90189593
S1070230F894FFCF6C
S9030000FC
