S01C00006E75625F6C6F6E675F72616E67655F33323870622E737265637A
S11300000C945A000C9477000C9477000C947700AD
S11300100C9477000C9477000C9477000C94770080
S11300200C9477000C9477000C9477000C94770070
S11300300C9477000C9477000C9477000C94770060
S11300400C9477000C9477000C94FF000C947700C8
S11300500C9477000C9477000C9477000C94770040
S11300600C9477000C9477000C9477000C94770030
S11300700C9426010C9477000C9477000C94770070
S11300800C9477000C9477000C9477000C94770010
S11300900C9477000C9477000C9477000C94770000
S11300A00C9477000C9477000C9477000C947700F0
S11300B00C94770011241FBECFEFD8E0DEBFCDBF74
S11300C011E0A0E0B1E0E4E9F8E102C005900D928E
S11300D0AC30B107D9F723E0ACE0B1E001C01D9228
S11300E0A831B207E1F70E944D010C94480C0C941E
S11300F00000EF92FF920F931F93CF93DF93662339
S113010031F16150E82EF92EA8ECB0E00EEC10E0CD
S1130110E0ECF0E026EC30E001C0682F4115510519
S113012041F4808185FFFDCFE7018881E90188835F
S113013007C08C9185FFFDCFE7018881E8018883A2
S11301408FEF860FDFEFED1AFD0A6111E6CFDF9125
S1130150CF911F910F91FF90EF900895811119C0D5
S11301609091130180911201981761F120910E0171
S113017030910F012150310930930F0120930E016A
S1130180E92FF0E0EC5EFD4F80819F5F90931301B7
S1130190089590911101809110019817A9F0209170
S11301A00C0130910D012150310930930D01209340
S11301B00C01E92FF0E0EC5EFE4F80819F5F90938D
S11301C01101089580E0089580E00895811109C027
S11301D010920F0110920E0180911201809313016D
S11301E0089510920D0110920C01809110018093DA
S11301F01101089580910E0190910F0108951F92AD
S11302000F920FB60F9211248F939F93EF93FF9346
S113021080910E0190910F01019690930F018093AC
S11302200E01809112019091C600E82FF0E0EC5E7F
S1130230FD4F90838F5F80931201FF91EF919F9107
S11302408F910F900FBE0F901F9018951F920F92D1
S11302500FB60F9211248F939F93EF93FF93809186
S11302600C0190910D01019690930D0180930C0166
S1130270809110019091CE00E82FF0E0EC5EFE4FEB
S113028090838F5F80931001FF91EF919F918F91E5
S11302900F900FBE0F901F901895CF93DF93CDB79B
S11302A0DEB7C95DD1090FB6F894DEBF0FBECDBF6E
S11302B0699A719A8CE090E00E94100A789487EA17
S11302C091E60197F1F700C000000E94280AFE01A0
S11302D031969E012A543F4F11922E173F07E1F7A2
S11302E09E012A543F4F682F792FDE011296CE01CA
S11302F00696FB014081F90141939F01FB01419165
S1130300BF014D93A817B907A1F7E6EBF0E0EC0F96
S1130310FD1F7296DE01549686EB90E08C0F9D1FB4
S1130320489622E221932D93E817F907D9F7C6548A
S1130330DF4F1882CA5BD04081E0C554DF4F888309
S1130340CB5BD04089831E828F8380E090E00E9443
S1130350E60011E0113079F4FFE322E48FE0F1507C
S113036020408040E1F700C00000BE016A547F4F86
S113037080E00E947A020E94FA00181619067CF4A2
S11303808E010A541F4F9E012F5F3F4F45EB50E0F3
S1130390B901C8010E9492060E94E60010E0E7EA53
S11303A0F1E63197F1F700C00000D4CFEF92FF924D
S11303B00F931F93CF93DF9300D000D0CDB7DEB758
S11303C02FEF298332E03A8337E63B832C835D9811
S11303D08C017C0124E0E20EF11CF80181918F0173
S11303E08C839B819F5F9B8340E050E064E0CE015F
S11303F001960E9479000E151F0579F70E94E60008
S113040083EC99E00197F1F700C000005D9A0F902A
S11304100F900F900F90DF91CF911F910F91FF904C
S1130420EF900895EF92FF920F931F93CF93DF9372
S1130430CDB7DEB727970FB6F894DEBF0FBECDBF9A
S11304407C01162FFA01C90123E0298320812A8324
S113045021812B8322812C8323812D836E830F831F
S11304600E94D60140E050E067E0CE0101960E9470
S1130470790040E050E0612FC7010E94790027967F
S11304800FB6F894DEBF0FBECDBFDF91CF911F91A1
S11304900F91FF90EF900895CF93DF9300D000D099
S11304A000D0CDB7DEB7FC01CB0124E02983208145
S11304B02A8321812B8322812C8323812D8321E094
S11304C02E830E94D60140E050E065E0CE01019603
S11304D00E94790040E050E061E0CE0106960E945F
S11304E0790026960FB6F894DEBF0FBECDBFDF911C
S11304F0CF910895EF92FF921F93CF93DF93CDB7DF
S1130500DEB72B970FB6F894DEBF0FBECDBF7B01CD
S11305105D989FEF998392E09A839DE49B838C83FB
S113052040E050E064E0CE0101960E9479008BE443
S11305309DE10197F1F700C0000080E00E94AE0049
S113054080E00E94AE0080E00E94AE0080E00E9445
S1130550AE0085E0E6E0F1E0DE01159601900D9233
S11305608A95E1F785E08A8784E28B8714E040E08E
S113057050E065E0CE0105960E94790080E00E947B
S1130580AE008F818F5F8F8383EC99E00197F1F741
S113059000C00000115059F783ED90E30197F1F783
S11305A000C000005D9A83EC99E00197F1F700C068
S11305B0000040E050E062E0CE010A960E9479001B
S11305C040E050E064E2C7010E9479002B960FB628
S11305D0F894DEBF0FBECDBFDF91CF911F91FF9086
S11305E0EF9008952F923F924F925F926F927F9275
S11305F08F929F92AF92BF92CF92DF92EF92FF922F
S11306000F931F93CF93DF93CDB7DEB729970FB620
S1130610F894DEBF0FBECDBF3C017A8369837A01B3
S1130620290180910E0190910F018617970708F018
S113063058C308C0A3ECB9E01197F1F700C000005B
S1130640815029F429813A81232B59F41DC020912A
S11306500E0130910F0149815A812417350750F753
S1130660F1CF80E090E010E06701C80ED91E80E071
S11306700E94AE00D6018C931F5F812F90E0E98128
S1130680FA818E179F0780F340E050E06981C7012B
S11306900E947900013009F04FC1D20114961C92D6
S11306A0F301F081F983F111FCC07EC2FF24F394BD
S11306B0EE81FF81A081AA23D9F1D2016C9110E0CF
S11306C01CC0A885B985ED90B987A8875191E5121A
S11306D00EC0433040F0D20114965C9114975F5FD2
S11306E014965C93792D4F5F443059F700C01F5F17
S11306F0EE81FF81A0811A17D8F4FC01E10FF11DEE
S1130700EE0FFF1FEE0FFF1FE60DF71D4781641369
S1130710EECFD2011196F901E10FF11DEE0FFF1F8B
S1130720EE0FFF1FE60DF71D40E0B987A887DBCF6A
S113073041E0582D772311F040E050E0EF2DF0E038
S11307404E235F23452BA1F17A2F44E22B813C8178
S1130750429FF001439FF00D1124E60DF71D7F5FCA
S11307607583D20180E090E0E4E2B901E69F900154
S1130770E79F300D1124A301420F531F4B5F5F4FBE
S11307805A8349834D91E981FA815081F90164E0EA
S1130790569FE00DF11D1124E60DF71DE80FF91F1A
S11307A0478301968430910569F7F12C00E083C0FA
S11307B041E0582DFF2011F040E050E0E72FF0E039
S11307C04E235F23452B91F1D20114968C9124E2A0
S11307D0EB81FC812E9FD0012F9FB00D1124A60D1B
S11307E0B71D11969C911197082F10E0B20134E0C7
S11307F0839F600D711D1124FB01968312968C91C9
S11308001297878313968C911397F8013296EE0F03
S1130810FF1FEE0FFF1FE40DF51D808314968C91CE
S1130820DB0119968C93F12C00E045C00F5FF201B7
S11308304481041708F03DC0402F50E0F20164E009
S1130840069FE00DF11D1124E681D6016C91E6139B
S11308502FCFFA01EE0FFF1FEE0FFF1FE40DF51D62
S1130860D5011C916781161323CFFA013296EE0F3E
S1130870FF1FEE0FFF1FE40DF51DD1011C916081D8
S1130880161316CF440F551F440F551FF201E40FE2
S1130890F51F5185E981FA814081541709F406CF87
S11308A007CFE12CF12C00E0812C99249394ED8264
S11308B002C00F2DF72EFD81FF5FFD83D3018C91C4
S11308C0F817D0F5F20184818823A9F33D81232F01
S11308D030E03C832B83220F331F220F331F220F60
S11308E0331F4B815C81240F351F60E0A4E2A49F79
S11308F0C001A59F900D1124860D971D9F838E83A3
S11309006C01BFEFCB1ADB0A5C01E2E0AE0EB11C56
S11309101C01F3E02F0E311C04969A8389834E81C7
S11309205F814B5F5F4FC9012E5F3F4F7F2DF02EDC
S1130930062F5F834E8380CFF301F081F983FF2379
S113094009F432C1D2011C91D30160E070E030E0BF
S11309501B8204E2FF24F394D12CCF2E0FC1DF2C91
S1130960822F90E0FA01E80FF91F2F5F840D951D87
S1130970E180FC018081E81207C08FEF820F833091
S113098008F09AC1243060F3F1E0DF12F1C0D20123
S11309901496FC9014971596EC90432F50E0F301B5
S11309A0B4E23B9FE00DF11D11248681E8125EC084
S11309B084E2849FF001859FF00D1124E60DF71D5C
S11309C08581F81253C0FF2009F47AC1E4E23E9F06
S11309D0C0011124B301680F791F5A824982089615
S11309E0860D971DD12C13C001911D9101133EC09A
S11309F02F5F2430C9F7D3946C5F7F4FA981BA81EC
S1130A001496BA83A9830496FD1409F459C1DB0131
S1130A101796EC91A981BA8116962C911697E21338
S1130A2025C01796FC0121E0DFCF21919D91291368
S1130A301DC08F5F8630C9F7D3940A5F1F4FE981C9
S1130A40FA813696FA83E9836A5F7F4FED1409F4DD
S1130A5050C1D80153969C91E981FA8182899813F7
S1130A6005C0DF015396FB0181E0DFCF84E2849F60
S1130A70F001859FF00D1124E60DF71DF582D201DA
S1130A8015968C911597868314968C91882309F476
S1130A9044C020E0CA01880F991F880F991F880F4E
S1130AA0991F480F591F822F90E08201B4E02B9FB9
S1130AB0000D111D1124D8011696EC91BA01680F8E
S1130AC0791FDB01AA0FBB1FAA0FBB1FA60DB71D01
S1130AD0BA83A9831796EC93F801A781FB01329698
S1130AE0EE0FFF1FEE0FFF1FE60DF71DA083DC01C5
S1130AF01296AA0FBB1FAA0FBB1FA40DB51D8C9184
S1130B008183D80119968C91E981FA8182872F5FBC
S1130B10D20114968C91281730F2F2018581882332
S1130B2009F4E7C0F4E23F9F9001112440E02D5EF8
S1130B303F4F0BC09D9191938150E1F74F5FD201DC
S1130B4015968C91481708F0D4C0842F90E0FC01CE
S1130B50EE0FFF1FE80FF91FEE0FFF1FDF01529684
S1130B60A40DB51DE20FF31FE60DF71D86E0E2CFDD
S1130B703F5F6F5F7F4F94963C1571F011968C9197
S1130B801197811301CF21E0069FA001079F500D0B
S1130B901124460D571DF1CEDB82C982D110A9C0A4
S1130BA0BC2DB53009F4A5C049814F5FF3014083E2
S1130BB0D20114962C91842F90E0B4E24B9FE00D67
S1130BC0F11D11242583D20115962C9115972583A7
S1130BD014962C91222309F444C050E09C01220F66
S1130BE0331F220F331F220F331F280F391F852F66
S1130BF090E08201B4E05B9F000D111D1124D80127
S1130C001696EC91B901680F791FDB01AA0FBB1F7F
S1130C10AA0FBB1FA60DB71DBA83A9831796EC9321
S1130C20F801A781FB013296EE0FFF1FEE0FFF1FA5
S1130C30E60DF71DA083DC011296AA0FBB1FAA0FB5
S1130C40BB1FA40DB51D8C918183D80119968C917D
S1130C50E981FA8182875F5FD20114968C915817DB
S1130C6030F2F2018581882309F443C0F4E24F9FF6
S1130C70A001112460E04D5E5F4F0AC09D919193E5
S1130C808150E1F76F5FD20115968C91681788F552
S1130C90862F90E09C01220F331F820F931F880F31
S1130CA0991FDC015296A40DB51D840F951FF30105
S1130CB0E80FF91F86E0E2CF243008F450CE67CE67
S1130CC0EE20B9F0B4E23B9FC00111248301080F68
S1130CD0191F5A8249824496B301680F791FD12C97
S1130CE0B8CEE3ECF9E03197F1F700C0000085E6F7
S1130CF0AECC29960FB6F894DEBF0FBECDBFDF9100
S1130D00CF911F910F91FF90EF90DF90CF90BF9004
S1130D10AF909F908F907F906F905F904F903F9097
S1130D202F9008952F923F924F925F926F927F92ED
S1130D308F929F92AF92BF92CF92DF92EF92FF92E7
S1130D400F931F93CF93DF93CDB7DEB76D970FB695
S1130D50F894DEBF0FBECDBF6C017B01598F488F65
S1130D60490158016DB67EB680E00E94AE00813024
S1130D7009F0C8C02DB63EB680E00E94AE005524EE
S1130D805394580E80E00E94AE00982E80E00E949A
S1130D90AE00882E2DB73EB7281B31090FB6F89444
S1130DA03EBF0FBE2DBF8DB79EB701969F8B8E8B16
S1130DB0E92CF12CEE0CFF1CEE0CFF1CADB7BEB7FA
S1130DC0AE19BF090FB6F894BEBF0FBEADBFEDB7E5
S1130DD0FEB73196F98FE88F5F011E141F040CF0E3
S1130DE0EAC200E010E0412C80E00E94AE00F50170
S1130DF0E00FF11F80834394042D10E00E151F05AE
S1130E009CF3D9C280E00E94AE00D8018D938D017D
S1130E10AE15BF05B9F78E010B5F1F4F7E01BBE016
S1130E20EB0EF11C80E00E94AE00F80181938F016B
S1130E30EE15FF05B9F78820A1F00E891F89EE246D
S1130E40EA94E80CF12CFFEFEF1AFF0AE00EF11E12
S1130E5080E00E94AE00D8018D938D01EA16FB0656
S1130E60B9F7591011C081E0898BCE010B968A8B9A
S1130E7006978B8B8C8ABE89BD8B41E050E065E080
S1130E800C960E94790038C081E0898B5A8A9B8A2B
S1130E908C8AE88DF98DE50DF11D818190E00E9429
S1130EA0D60140E050E064E0CE0141960E94790012
S1130EB0692D660F660F40E050E0888D998D0E9481
S1130EC0790040E050E066E0CE010B960E94790084
S1130ED040E050E066E0CE0105960E94790040E0D3
S1130EE050E0682D8E899F890E947900BE016F5F52
S1130EF07F4FC6010E944C020FB6F8943EBE0FBE4F
S1130F002DBE56C2833009F580E00E94AE0089836D
S1130F1080E00E94AE008A8380E00E94AE008B8352
S1130F2080E00E94AE008C8380E00E94AE0080E0EE
S1130F300E94AE00082F10E09501A401688D798D00
S1130F40C7010E94F20280E04DC2843049F440E0BF
S1130F5050E061E086E190E00E94790084E042C2C2
S1130F60853009F01CC280E00E94AE008D8F80E0C5
S1130F700E94AE00898380E00E94AE008A8380E0F4
S1130F800E94AE008B8380E00E94AE008C83F70148
S1130F90808191E0D80114962C91233008F090E0E0
S1130FA0992309F406C291E0853008F090E0992372
S1130FB009F4FFC181112CC06BC00A8D013011F5F9
S1130FC041145104F9F0CC0CDD1CC601880F991FA3
S1130FD0880F991F880F991FC80ED91E8601095EB4
S1130FE01F4F080D191D2B8D3C8DC20ED31EC80C2E
S1130FF0D91C80E00E94AE00D8018D938D01CA16E1
S1131000DB06B9F73394F7018081381678F03DC0D8
S1131010312C1A8E0F2EF4E22F2EF02D0D8D402E32
S1131020512C9201295E3F4F3C8F2B8FC32CD12C26
S11310309981F701239CE00DF11D112481819813FE
S1131040BCCF2C9CF0012D9CF00D1124EE0DFF1D46
S11310509A8182819813B1CF2C9CF0012D9CF00DC4
S11310601124EE0DFF1D9B8183819813A6CF2C9C28
S1131070F0012D9CF00D1124EE0DFF1D9C81848147
S113108098139BCF01E00A8F9BCF0A8D011197C063
S11310902DB73EB73F8B2E8B0D8D202E312C90E03B
S11310A0880F991FFC01EE0FFF1FEE0FFF1FEE0FBD
S11310B0FF1F8E0F9F1FF401E80FF91F8981838B97
S11310C0D7018C9190E0880F991FFC01EE0FFF1F50
S11310D0EE0FFF1FEE0FFF1F8E0F9F1FF401E80F8F
S11310E0F91F8A81848B8C9190E0880F991FFC01F1
S11310F0EE0FFF1FEE0FFF1FEE0FFF1F8E0F9F1F40
S1131100F401E80FF91F8B81858B8C9190E0880F97
S1131110991FFC01EE0FFF1FEE0FFF1FEE0FFF1FC5
S11311208E0F9F1FF401E80FF91F8C81868B211409
S1131130310409F448C1C12CD12CE3ECF9E0319716
S1131140F1F700C00000D7010C9110E0000F111F4F
S1131150C801880F991F880F991F880F991F080FBE
S1131160191F095E1F4F0C0D1D1D080D191D80E070
S11311700E94AE00F8018083FFEFCF1ADF0A2C141F
S11311803D04D9F620C16D91F9017081FA0104E0A2
S1131190709FE00DF11D1124EE0DFF1DE80FF91FE6
S11311A0678301968430910571F71F5FD7011C9303
S11311B08E889F880FB6F8949EBE0FBE8DBED70151
S11311C05C91552309F4DEC0698127017A811B8172
S11311D00C8180E040E0C0C0942F05C0942F03C070
S11311E0942F01C0942F413009F0B1C0B501AE0174
S11311F04F5F5F4F20E030E0282E312CB4E28B9F0C
S113120080011124D701A00FB11F6D01E5E0CE0EBE
S1131210D11C3F8A2E8ADB01ED91BD01D601FC91E0
S1131220D80194E0F99FA00DB11D1124AE0DBF1D8E
S1131230A20FB31F1796EC93D5011496EC91DA0123
S11312409D90AD01D501F4E0EF9FA00DB11D1124D7
S1131250A20FB31F16969C922F5F3F4F2430310587
S1131260C1F691E09E0FD50114969C9394E2929D51
S1131270D001939DB00D1124AE0DBF1D15969C9108
S113128015979F5F15969C93D7015C91552309F49C
S113129079C0F501608190E040E041C0242F05C091
S11312A0242F03C0242F01C0242F413089F5D701F6
S11312B0F4E28F9FA00DB11D1124119620E030E0BF
S11312C0492F50E004E2909FC00111246D91F50173
S11312D07481E72FF0E03197EE0FFF1FEE0FFF1F31
S11312E0E80FF91FEE0DFF1DE20FF31F67832F5F59
S11312F03F4F2430310551F784E2849FF001859FEC
S1131300F00D1124EE0DFF1D85818F5F85833AC09A
S11313109F5FF4E24F0E511C9517A1F1422FF20189
S113132021816213BBCF3281D50111962C91119783
S11313303213B6CF12963C91129723813213B2CF57
S113134013963C912481321709F4B1CFADCF8F5F4E
S113135094968517B9F0492F11969C9111976913AA
S11313603BCF12969C911297791338CF13969C9188
S11313701397191335CF14969C911497901709F469
S113138035CF30CF01E010E09E012F5F3F4FA50124
S1131390688D798DC7010E94120281E023C08630D6
S11313A039F480E00E94AE0080E00E94AE001AC0D2
S11313B019C080E017C08E01055F1F4F7E01B1E1A7
S11313C0EB0EF11C1FCDF7011081D50180E090E0F8
S11313D0F4E21F9FA00111249701240F351F2B5FF6
S11313E03F4FD1CE0FB6F8947EBE0FBE6DBE6D9644
S11313F00FB6F894DEBF0FBECDBFDF91CF911F9122
S11314000F91FF90EF90DF90CF90BF90AF909F909F
S11314108F907F906F905F904F903F902F900895A2
S11314209093C5008093C40042E24093C00038E921
S11314303093C1002EE02093C2009093CD0080939E
S1131440CC004093C8003093C9002093CA0008958B
S11314500F931F93CF93DF93CDB7DEB760970FB68B
S1131460F894DEBF0FBECDBF7894279A3C98269A95
S1131470539A559A5B982E9887EA91E60197F1F76B
S113148000C000002E9A9FE3EDE0F3E09150E040AD
S1131490F040E1F700C00000809112019091130127
S11314A090931401809313015D982FEF298392E0A8
S11314B09A838EEF8B8334E33C832D839E838F83C7
S11314C035E3388729879A878B8736E33C872D87CE
S11314D09E878F8787E3888B84E090E00E94270BA8
S11314E08C0140E050E064E070E0CE0101960E947F
S11314F0790087EA91E60197F1F700C00000809136
S11315000E0190910F0183309105ECF3809112014B
S1131510909113010197909314018093130180E03B
S113152090E00E94AE00F801808340E050E064E067
S113153070E0CE0105960E94790087EA91E6019752
S1131540F1F700C0000080910E0190910F018330EB
S11315509105ECF3809112019091130101979093FE
S113156014018093130180E090E00E94AE00F80122
S1131570818340E050E064E070E0CE0109960E946F
S1131580790087EA91E60197F1F700C000008091A5
S11315900E0190910F0183309105ECF380911201BB
S11315A0909113010197909314018093130180E0AB
S11315B090E00E94AE00F801828340E050E064E0D5
S11315C070E0CE010D960E94790087EA91E60197BA
S11315D0F1F700C0000080910E0190910F0183305B
S11315E09105ECF38091120190911301019790936E
S11315F014018093130180E090E00E94AE00F80192
S11316008383FFEB27E289E0F15020408040E1F73B
S113161000C0000040E050E064E070E0C8010E94B7
S113162079009FE3EDE0F3E09150E040F040E1F712
S113163000C000005D9AC80160960FB6F894DEBF42
S11316400FBECDBFDF91CF911F910F9108950F93DE
S11316501F93CF93DF938230910510F482E090E0E2
S1131660E0911603F091170320E030E0A0E0B0E031
S1131670309719F14081518102811381481759072C
S1131680C8F08417950769F4109731F012960C93FB
S1131690129713961C9327C00093160310931703F5
S11316A022C02115310519F04217530718F49A0185
S11316B0BD01EF01DF01F801DBCF21153105F9F0A0
S11316C0281B390B2430310580F48A819B816115F4
S11316D0710521F0FB019383828304C09093170367
S11316E080931603FE01329644C0FE01E20FF31FFD
S11316F08193919322503109398328833AC02091F0
S1131700140330911503232B41F4209102013091ED
S113171003013093150320931403209100013091A9
S113172001012115310541F42DB73EB74091040163
S113173050910501241B350BE0911403F09115031E
S1131740E217F307A0F42E1B3F0B2817390778F094
S1131750AC014E5F5F4F2417350748F04E0F5F1FF3
S113176050931503409314038193919302C0E0E0D6
S1131770F0E0CF01DF91CF911F910F910895CF93A6
S1131780DF93009709F481C0FC013297138212821F
S1131790A0911603B0911703109781F42081318131
S11317A0820F931F209114033091150328173907D2
S11317B051F5F0931503E093140367C0ED0120E0A5
S11317C030E0CE17DF0740F44A815B819E0141156A
S11317D05105F1F0EA01F5CFD383C28340815181F1
S11317E0840F951FC817D90759F488819981840FEC
S11317F0951F0296918380838A819B819383828340
S11318002115310529F4F0931703E09316033DC025
S1131810E901FB83EA8349915991C40FD51FEC1761
S1131820FD0761F480819181840F951F0296E9017F
S113183099838883828193819B838A83E0E0F0E0AB
S113184012968D919C911397009719F0FD01DC017C
S1131850F7CF8D919C9111979D012E5F3F4F820F81
S1131860931F20911403309115032817390769F445
S1131870309729F4109217031092160302C01382B2
S11318801282B0931503A0931403DF91CF910895AE
S1071890F894FFCFF6
S10F1894000018032000FF0368FE7F0022
S9030000FC
