S01C00006E75625F6C6F6E675F72616E67655F33323870622E737265637A
S11300000C945A000C9477000C9477000C947700AD
S11300100C9477000C9477000C9477000C94770080
S11300200C9477000C9477000C9477000C94770070
S11300300C9477000C9477000C9477000C94770060
S11300400C9477000C9477000C94F2000C947700D5
S11300500C9477000C9477000C9477000C94770040
S11300600C9477000C9477000C9477000C94770030
S11300700C9415010C9477000C9477000C94770081
S11300800C9477000C9477000C9477000C94770010
S11300900C9477000C9477000C9477000C94770000
S11300A00C9477000C9477000C9477000C947700F0
S11300B00C94770011241FBECFEFD8E0DEBFCDBF74
S11300C011E0A0E0B1E0E0E4FFE102C005900D9290
S11300D0A032B107D9F723E0A0E2B1E001C01D923C
S11300E0AA32B207E1F70E9438010C949E0F0C94D7
S11300F00000EF92FF920F931F93CF93DF93662339
S113010031F16150E82EF92EA8ECB0E00EEC10E0CD
S1130110E0ECF0E026EC30E001C0682F4115510519
S113012041F4808185FFFDCFE7018881E90188835F
S113013007C08C9185FFFDCFE7018881E8018883A2
S11301408FEF860FDFEFED1AFD0A6111E6CFDF9125
S1130150CF911F910F91FF90EF900895811114C0DA
S11301609091250180912401981711F1809121012A
S1130170815080932101E92FF0E0EA5DFD4F8081F9
S11301809F5F90932501089590912301809122010E
S1130190981781F080912001815080932001E92FEC
S11301A0F0E0EA5DFE4F80819F5F90932301089504
S11301B080E0089580E00895811107C01092210124
S11301C0809124018093250108951092200180914B
S11301D02201809323010895809121010895809143
S11301E0200108951F920F920FB60F9211248F933E
S11301F09F93EF93FF93809121018F5F809321015F
S1130200809124019091C600E82FF0E0EA5DFD4F53
S113021090838F5F80932401FF91EF919F918F9141
S11302200F900FBE0F901F9018951F920F920FB64C
S11302300F9211248F939F93EF93FF93809120014A
S11302408F5F80932001809122019091CE00E82F4E
S1130250F0E0EA5DFE4F90838F5F80932201FF916F
S1130260EF919F918F910F900FBE0F901F90189553
S1130270CF93DF93CDB7DEB7C95DD1090FB6F8943C
S1130280DEBF0FBECDBF699A719A8CE090E00E94E8
S11302906F0D789487EA91E60197F1F700C00000AA
S11302A00E94870DFE0131969E012A543F4F119200
S11302B0E217F307E1F79E012A543F4F682F792F85
S11302C0DE011296CE010696FB014081F9014193AD
S11302D09F01FB014191BF014D93A817B907A1F7F5
S11302E0E6EBF0E0EC0FFD1F7296DE01549686EB10
S11302F090E08C0F9D1F489621E121932D93E817E0
S1130300F907D9F7C654DF4F1882CA5BD04081E0A1
S1130310C554DF4F8883CB5BD04089831E828F8393
S113032080E00E94DC00FF24F394F1E0FF120FC090
S1130330BE016A547F4F80E00E9401042FE583EEE2
S113034096E1215080409040E1F700C000000E94F7
S1130350EC008823B1F08E010A541F4F9E012F5FD9
S11303603F4F45EB50E0B90180E00E94070883301D
S113037021F0853019F4F12C01C0F12C80E00E94A9
S1130380DC000E94EF00882379F08E010A541F4F8D
S11303909E012F5F3F4F45EB50E0B90181E00E9481
S11303A0070881E00E94DC00E7EAF1E63197F1F703
S11303B000C00000BACF6F927F928F929F92AF924B
S11303C0BF92CF92DF92EF92FF920F931F93CF933E
S11303D0DF938C01EA0184E090E00E947D0E688046
S11303E0662009F446C06E01E12CF12CB8016A5F65
S11303F07F4F32C0A190BD90AB1016C0E617F7072F
S1130400C9F724E22E9DD0012F9DB00D1124119621
S1130410AC0FBD1FFC01AC014C5F5F4F2D912193CC
S11304204E175F07D9F729C093942A5F3F4F4A5F5D
S11304305F4F981449F0D9015396EC917E12F4CF92
S1130440F8013196DA01D6CFBFEFEB1AFB0AE4E2EA
S1130450CE0ED11CE61468F4D60116968C90882032
S113046099F3F8017080A6014C5E5F4F9601912CC0
S1130470E2CF2FEFDC0116962C93DF91CF911F91E1
S11304800F91FF90EF90DF90CF90BF90AF909F902F
S11304908F907F906F900895EF92FF920F931F9328
S11304A0CF93DF9300D000D0CDB7DEB72FEF2983F1
S11304B032E03A8337E63B832C835D988C017C01E0
S11304C024E0E20EF11CF80181918F018C839B8161
S11304D09F5F9B8340E050E064E0CE0101960E9460
S11304E079000E151F0579F780E00E94DC0083EC8B
S11304F099E00197F1F700C000005D9A0F900F900A
S11305000F900F90DF91CF911F910F91FF90EF907B
S113051008952F923F924F925F926F927F928F92A3
S11305209F92AF92BF92CF92DF92EF92FF920F937E
S11305301F93CF93DF9300D000D01F92CDB7DEB7C7
S11305407C017A8369838A018DE090E00E947D0EAC
S11305501C01D80114965C91552351F1F701608177
S11305609801F80180E070E0DD24D39489809A80BA
S113057005C07D2D8F5F34968517B1F09681961353
S1130580F9CFD70111964C91119797814913F2CF66
S113059012964C91129790854913ECCF13964C9177
S11305A09185491731F3E6CF9A8289827130A1F09F
S11305B0E981FA814080442009F470C05F01FFEFB3
S11305C0AF1ABF0A512C680174E0C70ED11C3A82DD
S11305D02982342C452C4FC0D1010C5F1F4FA70139
S11305E0F90181919F018D93FA018191AF011396D5
S11305F08C9313972017310799F782E0D1011C9649
S11306008C934CC0AB81BC812D90BC83AB83D40153
S11306107D914D01271619F0B0812B1207C063306C
S113062008F063946F5F3196643061F773940496B5
S1130630751459F1A7019801F80147019C838B8334
S113064060E0E0CFD9018D919D018193D4018D911A
S11306504D018383DA018D91AD018783C216D306E0
S113066089F773E0E981FA817487439484E2A80EE0
S1130670B11C431489F0D50114965C905520A9F35C
S1130680C5010696712C612CD5CFB2E06B12EDCF6B
S1130690E981FA814501D6CF29803A80C1010F90C2
S11306A00F900F900F900F90DF91CF911F910F91AA
S11306B0FF90EF90DF90CF90BF90AF909F908F907E
S11306C07F906F905F904F903F902F9008956F921E
S11306D07F928F929F92BF92CF92DF92EF92FF927E
S11306E00F931F93CF93DF93CDB7DEB728970FB641
S11306F0F894DEBF0FBECDBFB82E3A01490181E0A8
S113070089836A83BB82F60180818C838AE08D832E
S11307101E8282E18F8380EF8887CE0105960E9436
S11307204C0240E050E064E0CE0101960E94790062
S11307306B2D660F660F40E050E0C3010E94790004
S113074040E050E066E0C4010E94790040E050E0DF
S113075066E0C8010E94790040E050E0F601608143
S1130760C7010E94790028960FB6F894DEBF0FBE29
S1130770CDBFDF91CF911F910F91FF90EF90DF904C
S1130780CF90BF909F908F907F906F900895EF923D
S1130790FF920F931F93CF93DF93CDB7DEB72797C5
S11307A00FB6F894DEBF0FBECDBF7C01162FFA0141
S11307B0C90123E0298320812A8321812B8322817B
S11307C02C8323812D836E830F830E944C0240E08F
S11307D050E067E0CE0101960E94790040E050E0CD
S11307E0612FC7010E94790027960FB6F894DEBFE7
S11307F00FBECDBFDF91CF911F910F91FF90EF906E
S11308000895EF92FF921F93CF93DF93CDB7DEB796
S11308102B970FB6F894DEBF0FBECDBF7B015D985A
S11308209FEF998392E09A839DE49B838C8340E0BD
S113083050E064E0CE0101960E9479008BE49DE1D2
S11308400197F1F700C0000080E00E94AE0080E054
S11308500E94AE0080E00E94AE0080E00E94AE00E4
S113086085E0E6E0F1E0DE01159601900D928A95AF
S1130870E1F785E08A8784E28B8714E040E050E06A
S113088065E0CE0105960E94790080E00E94AE00EA
S11308908F818F5F8F8383EC99E00197F1F700C01C
S11308A00000115059F783ED90E30197F1F700C070
S11308B000005D9A83EC99E00197F1F700C0000015
S11308C040E050E062E0CE010A960E94790040E0E8
S11308D050E064E2C7010E94790083EC99E001973B
S11308E0F1F700C0000080E00E94DC002B960FB6F8
S11308F0F894DEBF0FBECDBFDF91CF911F91FF9063
S1130900EF9008952F923F924F925F926F927F9251
S11309108F929F92AF92BF92CF92DF92EF92FF920B
S11309200F931F93CF93DF93CDB7DEB72B970FB6FB
S1130930F894DEBF0FBECDBF2C015B017A013A8370
S11309402983672B89F080E090E010E06701C80EEE
S1130950D91E80E00E94AE00D6018C931F5F812FC8
S113096090E08A159B0590F3013009F03BC1D20158
S1130970EC90EE2009F472C2812C912C312C1E8251
S1130980B1E0BF83222423948D8269807A80F301AD
S1130990848010E0BD80AB2CB12CBC82AB82720190
S11309A024E23D81239FE00CF11C1124D701119610
S11309B0A7014E5F5F4F670163E0C60ED11C57016C
S11309C074E0A70EB11C85E0E80EF11C2B813C817C
S11309D0220F331F220F331F220F331FEB81FC81A1
S11309E02E0F3F1F798668867F806B817C817A8396
S11309F069830C91812F90E0E885F98574E0179F55
S1130A00E00DF11D112466816013CBC2FC01EE0FD1
S1130A10FF1FEE0FFF1F68857985E60FF71F7781AB
S1130A20FA0160817613BDC2FC013296EE0FFF1FFE
S1130A30EE0FFF1F68857985E60FF71F7081F601B9
S1130A4060817613AEC2880F991F880F991FE885BD
S1130A50F985E80FF91F9185F50180819813A1C2EA
S1130A60372C9FC2862F90E0F901E80FF91FEE0F93
S1130A70FF1FEE0FFF1FE40DF51DA885B9856C90CF
S1130A80E7816E122FC0F901E80FF91F3296EE0FBD
S1130A90FF1FEE0FFF1FE40DF51DF0811196EC9181
S1130AA01197FE131FC0F901E80FF91F3296EE0FDC
S1130AB0FF1FEE0FFF1FE40DF51DF1811296EC915F
S1130AC01297FE130FC0F901E80FF91FEE0FFF1F75
S1130AD0EE0FFF1FE40DF51D13969C91828598136C
S1130AE001C0922C6F5F761708F0BCCFE885F985BA
S1130AF0AA85BB85332099F1911063C03F0114E2AC
S1130B00A980BA801A9DF0011B9DF00D1124E40DFB
S1130B10F51D7F5F7583D30180E090E044E24A9D38
S1130B2090014B9D300D1124AF014B5F5F4F6D91D0
S1130B30FA017081F90114E0719FE00DF11D112497
S1130B40E40DF51DE80FF91F6783019684309105C4
S1130B5071F768847984312C21E02E8338C0992080
S1130B6081F168847984682D70E0D30134E0839E38
S1130B70A00DB11D112416960C931697E4E2498139
S1130B805A81E49FC001E59F900D1124840D951DA9
S1130B90FC01228117962C9317972381FB0132962F
S1130BA0EE0FFF1FEE0FFF1FE60DF71D2083FC0164
S1130BB0848119968C938394D30114968C92912CEE
S1130BC006C01F5F811608F010CF68847984BD8148
S1130BD0BF5FBD83F2018081B81708F4D8CE7A8252
S1130BE0698201C01E82D201EC90EE2009F43DC15D
S1130BF0E981FA81108160E070E030E0D12C04E2F8
S1130C00FF24F394812F1D2D4F01D82E15C11F2DC4
S1130C10822F90E0FA01E80FF91F2F5F880D991DCC
S1130C20C180FC018081C81207C08FEF820F83301E
S1130C3008F0BDC1243060F3113009F0F7C09A8286
S1130C408982A981BA811496EC90149715968C9197
S1130C50032F10E0F201B4E23B9FE00DF11D1124DB
S1130C60968189135BC094E2909FF001919FF00DEF
S1130C701124E40DF51D9581E91250C0EE2009F40C
S1130C809CC1E4E23E9FA0011124B201640F751FD0
S1130C90A980BA80485F5F4F440D551DD12C11C007
S1130CA0F1902D91F21237C09150D1F7D3946C5F2B
S1130CB07F4FB4E0AB0EB11C4C5F5F4FED1409F4F1
S1130CC07CC1FB012781D50116969C9116972913A7
S1130CD023C01796FA0193E0E3CFF1902D91F2121D
S1130CE01CC09F5F9630C9F7D3946A5F7F4FB6E00C
S1130CF0AB0EB11C4A5F5F4F8D1509F444C1F50179
S1130D002289DB0153969C91291308C0D50153967F
S1130D10FA0191E0E2CF02C001C000C084E2809FEA
S1130D20F001819FF00D1124E40DF51DE582A981E8
S1130D30BA8115968C911597868314968C91882385
S1130D4009F445C020E0C801880F991F880F991F36
S1130D50880F991F080F191F822F90E0E980FA80ED
S1130D60B4E02B9FE00CF11C1124D7011696EC91F2
S1130D70A801480F591FBA01660F771F660F771F26
S1130D80640D751DDB011796EC93F701A781FA0139
S1130D903296EE0FFF1FEE0FFF1FE40DF51DA0832B
S1130DA0DC011296AA0FBB1FAA0FBB1FA980BA8031
S1130DB0AA0DBB1D8C918183D70119968C91FB01DF
S1130DC082872F5FD50114968C91281728F2E98128
S1130DD0FA818581882309F4D8C0F4E23F9F900109
S1130DE0112440E02D5E3F4F0CC09D9191938150A2
S1130DF0E1F74F5FA981BA8115968C91481708F0E5
S1130E00C6C0842F90E0FC01EE0FFF1FE80FF91F0E
S1130E10EE0FFF1FDF015296A980BA80AA0DBB1DF9
S1130E20E20FF31FE40DF51D86E0DFCF3F5F6F5F38
S1130E307F4F94963E1571F011968C9111978D11F8
S1130E40FBCE21E0069FA001079F500D1124440D05
S1130E50551DEBCE9A82898211119BC00F2EF5E0AD
S1130E60BF2EF02DEB1409F496C041E04E0DD201D3
S1130E704C93E981FA812481842F90E0F20114E2F9
S1130E80419FE00DF11D11242583A981BA81159696
S1130E902C911597258314962C91222309F445C08F
S1130EA050E09C01220F331F220F331F220F331FE8
S1130EB0280F391F852F90E0E980FA80B4E05B9F0A
S1130EC0E00CF11C1124D7011696EC91B901680FBE
S1130ED0791F8B01000F111F000F111F040D151D29
S1130EE0D8011796EC93F701A781FB013296EE0F18
S1130EF0FF1FEE0FFF1FE40DF51DA083DC0112960A
S1130F00AA0FBB1FAA0FBB1FA980BA80AA0DBB1DC5
S1130F108C918183D70119968C91F80182875F5F48
S1130F20D50114968C91581728F2E981FA818581AC
S1130F30882399F1F4E24F9FA001112460E04D5EF3
S1130F405F4F0BC09D9191938150E1F76F5FA98131
S1130F50BA8115968C91681710F5862F90E09C0144
S1130F60220F331F820F931F880F991FDC015296A3
S1130F70E981FA81AE0FBF1F840F951FF201E80FBC
S1130F80F91F86E0DFCF80E029C081E027C081E03F
S1130F9025C08E8123C081E021C081E01FC081E093
S1130FA01DC0F701708160E0BB87AA875BCD243048
S1130FB008F42DCE9A82898244CE882379F0B4E253
S1130FC03B9FA0011124B201640F751FA980BA8050
S1130FD04C5E5F4F440D551DD12C91CE2B960FB610
S1130FE0F894DEBF0FBECDBFDF91CF911F910F915B
S1130FF0FF90EF90DF90CF90BF90AF909F908F9035
S11310007F906F905F904F903F902F9008952F9214
S11310103F924F925F926F927F928F929F92AF9284
S1131020BF92CF92DF92EF92FF920F931F93CF93D1
S1131030DF93CDB7DEB7C75AD1090FB6F894DEBF38
S11310400FBECDBF7B012A0139016801ADB6BEB622
S1131050811106C00E94AE00813009F040C16FC406
S113106081E00E94AE0081E00E94AE0081E00E9417
S1131070AE00813009F033C1B1C400E010E0412C6E
S113108080E00E94AE00F401E00FF11F80834394DE
S1131090042D10E00E151F059CF3E3C480E00E94AC
S11310A0AE00D8018D938D01EA16FB06B9F78E01C7
S11310B00B571F4F7801B6E0EB0EF11C80E00E9445
S11310C0AE00F80181938F01EE15FF05B9F7C11445
S11310D0D10471F010E080E00E94AE00F301E10F52
S11310E0F11D80831F5F812F90E08C159D0598F37F
S11310F0CE55DF4F6880C25AD04065101FC082E0D1
S11311008D831E8281E08F83CE018F569F4F888707
S11311100C978987CB55DF4F7880C55AD0407A86A3
S1131120C056DF4F0881C05AD0400B8741E050E0E1
S113113067E0805891090E9479001AC0C056DF4FB9
S1131140E880F980C05AD0408E010B571F4F9E0192
S11311502F563F4FCD55DF4F48815981C35AD04058
S1131160CE55DF4F6881C25AD040852D0E94670357
S11311700FB6F8943EBE0FBE2DBED6C325E025158E
S113118030F081E00E94AE00D4018C9305C081E070
S11311900E94AE00F80180835394FFEF8F1A9F0AD8
S11311A00F5F1F4F0F2EFCE02F2EF02D5210E6CFB5
S11311B0C356DF4F88819981CD59D040892BB9F02E
S11311C010E081E00E94AE00E5E0F0E0EC0FFD1FCE
S11311D0E10FF11D80831F5F212F30E0C356DF4FE5
S11311E088819981CD59D0402817390750F341E0BF
S11311F050E064E18BE091E00E9479008E01035697
S11312001F4F41E050E062E0C8010E94790041E0D4
S113121050E066E0CE0189569F4F0E94790041E07C
S113122050E066E0CE018F569F4F0E94790041E066
S113123050E0602FCE0105960E947900A301B6010B
S1131240CE0189569F4F0E94DB01A601B7010E947F
S11312508902FC01AE014B575F4FBC01645F7F4FB5
S11312600BC081918D93E217F307D9F74C5F5F4F61
S1131270F9016217730729F09F012C5F3F4FDA01D0
S1131280F0CFC356DF4FC880D980CD59D0400CE091
S1131290C01AD1089E012B5F3F4F79018E010F5672
S11312A01F4F2E563F4FAE014B575F4F60E082E019
S11312B00E94670383E0C156DF4F8883CF59D04033
S11312C041E050E061E0CE0181569F4F0E947900D9
S11312D083EC99E00197F1F700C0000025C3833047
S11312E009F040C080E00E94AE00898380E00E9443
S11312F0AE008A8380E00E94AE008B8380E00E946F
S1131300AE008C8380E00E94AE00882E80E00E94B4
S1131310AE00082F9601A301B201C7010E94820406
S1131320813009F002C3D60114968C91882309F404
S1131330FEC210E0912C212F30E0220F331F220F28
S1131340331F2A5F3F4F2C0D3D1D00E0A601B40161
S1131350C7010E94C7031F5FF6018481181758F361
S113136083E09EC3843009F4E4C2853009F0D3C21B
S113137080E00E94AE00CB55DF4F8883C55AD04031
S113138080E00E94AE00898380E00E94AE008A83E0
S113139080E00E94AE008B8380E00E94AE008C83CC
S11313A0D7018C91853008F0C6C2F6019481933040
S11313B008F0C3C2811139C091C0CE55DF4F0881F6
S11313C0C25AD040013059F5CD55DF4F08811981FB
S11313D0C35AD040012B19F1880C991CC401880F01
S11313E0991F880F991F880F991F880E991E8401D1
S11313F0095E1F4F060D171DCA55DF4F288139811D
S1131400C65AD040820E931E860C971C80E00E9420
S1131410AE00D8018D938D018A169B06B9F73394DB
S1131420F7018081381600F152C0312CCE55DF4FC0
S11314301882C25AD0400F2EF4E22F2EF02DCB5535
S1131440DF4F1881C55AD040012F10E0CD55DF4F32
S113145019830883C35AD040095E1F4FCA55DF4F12
S113146019830883C65AD040832C912C9981F701A3
S1131470239CE00DF11D1124818198139ECF289C9B
S1131480F001299CF00D1124EE0DFF1D9A8182813B
S1131490981393CF289CF001299CF00D1124EE0D94
S11314A0FF1D93818B81981388CF289CF001299C80
S11314B0F00D1124EE0DFF1D94818C8198137DCFC6
S11314C001E0CE55DF4F0883C25AD0407DCFCE55C0
S11314D0DF4F1881C25AD0401111A3C02DB63EB6B9
S11314E0C056DF4F39822882C05AD040CB55DF4FD7
S11314F00881C55AD040202E312C90E0880F991FC6
S1131500FC01EE0FFF1FEE0FFF1FEE0FFF1F8E0FEC
S11315109F1FF301E80FF91F8981838BD7018C91F9
S113152090E0880F991FFC01EE0FFF1FEE0FFF1FC5
S1131530EE0FFF1F8E0F9F1FF301E80FF91F8A8123
S1131540848B8C9190E0880F991FFC01EE0FFF1F94
S1131550EE0FFF1FEE0FFF1F8E0F9F1FF301E80F0B
S1131560F91F8B81858B8C9190E0880F991FFC016A
S1131570EE0FFF1FEE0FFF1FEE0FFF1F8E0F9F1FBB
S1131580F301E80FF91F8C81868B2114310409F4CF
S113159070C2812C912CE3ECF9E03197F1F700C093
S11315A00000D7010C9110E0000F111FC801880F33
S11315B0991F880F991F880F991F080F191F095E1B
S11315C01F4F080D191D060D171D80E00E94AE0067
S11315D0F8018083FFEF8F1A9F0A28143904D9F683
S11315E048C26D91F9017081FA0104E0709FE00D29
S11315F0F11D1124EE0DFF1DE80FF91F67830196FD
S11316008430910571F71F5FD7011C93C056DF4FDB
S113161028803980C05AD0400FB6F8943EBE0FBE21
S11316202DBED7019C90992009F46AC17980B70135
S113163040E050E000E0812C0F2EF4E26F2EF02DFC
S1131640332433944FC1832C812F90E0E1E0F0E008
S1131650EC0FFD1FE80FF91F1F5F820F931F2080FF
S1131660FC018181281207C08FEF810F833008F0BD
S11316700FC2143048F3F1E08F122EC1202E312C0A
S1131680C056DF4F39822882C05AD040F70114E295
S1131690019FE00DF11D11243581332349F1D60159
S11316A04C91F701B4E20B9FE00DF11D112480E091
S11316B050E011E005C0512F8F5F34968317B1F0CD
S11316C097814913F9CF2085D60111969C911197E2
S11316D02913F2CF12962C91129791852913ECCFEE
S11316E013962C919285291731F3E6CF5111DBC063
S11316F09601DE01119680E090E044E2C056DF4F8F
S1131700E881F981C05AD0404E9F80014F9F100D4F
S11317101124A701400F511FFA013596CD55DF4F13
S1131720F983E883C35AD040F90191909F01CD55C4
S1131730DF4FE881F981C35AD0405081F80144E079
S1131740549FE00DF11D1124EE0DFF1DE80FF91F4C
S11317509782F60194808D9044E0949EE00DF11DF3
S11317601124E80FF91F8682019684309105E1F671
S11317709394D60114969C9284E2C056DF4F28803D
S11317803980C05AD040829DF001839DF00D112410
S1131790EE0DFF1D85818F5F8583D7019C9091108D
S11317A082C0AEC0162D8A2F90E0F601E80FF91F13
S11317B0AF5F820F931FB081FC018181B81307C012
S11317C08FEF8A0F833008F067C1A43060F31130C3
S11317D009F061C0D60114964C91442309F1F70134
S11317E0B4E23B9EE00DF11D11245A817B810C81F2
S11317F080E060E011E005C0612F8F5F34968417AC
S113180069F097819711F9CF90859513F6CF91855B
S11318107913F3CF9285091779F3EFCF611170C073
S11318209E012F5F3F4F80E090E0E32DF0E0C05633
S1131830DF4FF983E883C05AD040F4E23F9EA00111
S11318401124D701A40FB51F1596C056DF4F688029
S11318507980C05AD040F90191909F01EC911A010E
S113186004E0E09F200C311C1124F101EE0DFF1D5A
S1131870E80FF91F978201968430910531F784E2CD
S1131880869DF001879DF00D1124EE0DFF1D8581CD
S11318908F5F858335C033944F5F5F4F6C5D7F4F9F
S11318A0391468F02DC0D6010C9140E050E0312C81
S11318B010E00F2EF4E28F2EF02D66246394FB01CA
S11318C02181021384CFA1E0849E9001859E300D76
S11318D011242E0D3F1D74CF0F5F4F5F5F4F949601
S11318E0091571F011962C9111977212C4CE11E062
S11318F0649E9001659E300D11242E0D3F1DB4CEC3
S113190001E09E012F5F3F4FA601B201C7010E9473
S1131910C70385E0C5C0863039F480E00E94AE007C
S113192080E00E94AE00BCC0BBC083E0B9C083E0CD
S1131930B7C084E0B5C080E0B3C080E0B1C081E04E
S11319408D8341E050E061E0CE0105960E9479006C
S113195083EC99E00197F1F700C000002DB63EB684
S113196080E00E94AE008F5FCE55DF4F8883C25A5D
S1131970D04080E00E94AE00582EC12CCB55DF4FE2
S1131980C882C55AD040D12C0DB71EB70F5F1F4F68
S1131990C056DF4F19830883C05AD0403801E82E5F
S11319A0F12CEE0CFF1CEE0CFF1C2DB73EB72E19CC
S11319B03F090FB6F8943EBF0FBE2DBF4DB75EB7BB
S11319C04F5F5F4FCD55DF4F59834883C35AD04093
S11319D04A011E141F040CF450CB43C081E08D83D4
S11319E041E050E061E0CE0105960E94790083EC6D
S11319F099E00197F1F700C0000082E08D8341E097
S1131A0050E061E0CE0105960E947900A3ECB9E0B4
S1131A101197F1F700C0000082E090E00E947D0E73
S1131A208C01C356DF4F99838883CD59D04081E020
S1131A300E94AE00F8018083C356DF4F08811981EC
S1131A40CD59D04081E00E94AE00D80111968C930C
S1131A504E01B7E98B0E911C8E0105571F4F512C77
S1131A608DCB8E010F561F4F7801E6E0EE0EF11C70
S1131A7015CBD7011C91D60180E090E0E4E21E9FD3
S1131A80A00111249701240F351F2B5F3F4FA9CDCF
S1131A90143008F4D8CDF2CDA43008F483CE9ACE15
S1131AA00FB6F894BEBE0FBEADBEC955DF4F0FB61C
S1131AB0F894DEBF0FBECDBFDF91CF911F910F9180
S1131AC0FF90EF90DF90CF90BF90AF909F908F905A
S1131AD07F906F905F904F903F902F9008959093D8
S1131AE0C5008093C40042E24093C00038E93093BB
S1131AF0C1002EE02093C2009093CD008093CC00CF
S1131B004093C8003093C9002093CA0008950F93EE
S1131B101F93CF93DF93CDB7DEB760970FB6F894DA
S1131B20DEBF0FBECDBF7894279A3C98269A539A6D
S1131B30559A5B982E9887EA91E60197F1F700C0D1
S1131B4000002E9A9FE3EDE0F3E09150E040F04076
S1131B50E1F700C000008091240190912501909349
S1131B602601809325015D982FEF298392E09A83C3
S1131B708EEF8B8334E33C832D839E838F8335E305
S1131B80388729879A878B8736E33C872D879E87FA
S1131B908F8787E3888B84E090E00E947D0E8C0120
S1131BA040E050E064E070E0CE0101960E947900CC
S1131BB087EA91E60197F1F700C0000080912101C6
S1131BC09091220183309105ECF38091240190914E
S1131BD025010197909326018093250180E090E0F0
S1131BE00E94AE00F801808340E050E064E070E0C1
S1131BF0CE0105960E94790087EA91E60197F1F7F4
S1131C0000C0000080912101909122018330910550
S1131C10ECF3809124019091250101979093260182
S1131C208093250180E090E00E94AE00F80181835A
S1131C3040E050E064E070E0CE0109960E94790033
S1131C4087EA91E60197F1F700C000008091210135
S1131C509091220183309105ECF3809124019091BD
S1131C6025010197909326018093250180E090E05F
S1131C700E94AE00F801828340E050E064E070E02E
S1131C80CE010D960E94790087EA91E60197F1F75B
S1131C9000C00000809121019091220183309105C0
S1131CA0ECF38091240190912501019790932601F2
S1131CB08093250180E090E00E94AE00F8018383C8
S1131CC040E050E064E070E0C8010E947900FFE366
S1131CD02DE083E0F15020408040E1F700C0000097
S1131CE05D9AC80160960FB6F894DEBF0FBECDBFF3
S1131CF0DF91CF911F910F9108950F931F93CF936D
S1131D00DF938230910510F482E090E0E0912803A3
S1131D10F091290320E030E0A0E0B0E0309719F121
S1131D20408151810281138148175907C8F08417F3
S1131D30950769F4109731F012960C931297139645
S1131D401C9327C0009328031093290322C0211554
S1131D50310519F04217530718F49A01BD01EF0138
S1131D60DF01F801DBCF21153105F9F0281B390B10
S1131D702430310580F48A819B816115710521F03D
S1131D80FB019383828304C09093290380932803E7
S1131D90FE01329644C0FE01E20FF31F819391933A
S1131DA022503109398328833AC020912603309187
S1131DB02703232B41F42091020130910301309336
S1131DC0270320932603209100013091010121155E
S1131DD0310541F42DB73EB74091040150910501FE
S1131DE0241B350BE0912603F0912703E217F30738
S1131DF0A0F42E1B3F0B2817390778F0AC014E5F77
S1131E005F4F2417350748F04E0F5F1F5093270389
S1131E10409326038193919302C0E0E0F0E0CF0168
S1131E20DF91CF911F910F910895CF93DF93009786
S1131E3009F481C0FC01329713821282A091280315
S1131E40B0912903109781F420813181820F931F6F
S1131E5020912603309127032817390751F5F09371
S1131E602703E093260367C0ED0120E030E0CE179E
S1131E70DF0740F44A815B819E0141155105F1F071
S1131E80EA01F5CFD383C28340815181840F951F2A
S1131E90C817D90759F488819981840F951F029630
S1131EA0918380838A819B81938382832115310569
S1131EB029F4F0932903E09328033DC0E901FB834F
S1131EC0EA8349915991C40FD51FEC17FD0761F4BA
S1131ED080819181840F951F0296E90199838883FB
S1131EE0828193819B838A83E0E0F0E012968D9156
S1131EF09C911397009719F0FD01DC01F7CF8D91A8
S1131F009C9111979D012E5F3F4F820F931F20914B
S1131F102603309127032817390769F4309729F4E9
S1131F20109229031092280302C013821282B093E4
S1131F302703A0932603DF91CF910895F894FFCF50
S1131F4000002A032000FF0368FE7F414141414114
S1131F5041414141414141414141414141410000EF
S9030000FC
