S01C00006E75625F6C6F6E675F72616E67655F33323870622E737265637A
S11300000C945A000C9477000C9477000C947700AD
S11300100C9477000C9477000C9477000C94770080
S11300200C9477000C9477000C9477000C94770070
S11300300C9477000C9477000C9477000C94770060
S11300400C9477000C9477000C94F2000C947700D5
S11300500C9477000C9477000C9477000C94770040
S11300600C9477000C9477000C9477000C94770030
S11300700C9415010C9477000C9477000C94770081
S11300800C9477000C9477000C9477000C94770010
S11300900C9477000C9477000C9477000C94770000
S11300A00C9477000C9477000C9477000C947700F0
S11300B00C94770011241FBECFEFD8E0DEBFCDBF74
S11300C011E0A0E0B1E0E8E5FFE102C005900D9287
S11300D0AC30B107D9F723E0ACE0B1E001C01D9228
S11300E0A631B207E1F70E9438010C94AA0F0C94D0
S11300F00000EF92FF920F931F93CF93DF93662339
S113010031F16150E82EF92EA8ECB0E00EEC10E0CD
S1130110E0ECF0E026EC30E001C0682F4115510519
S113012041F4808185FFFDCFE7018881E90188835F
S113013007C08C9185FFFDCFE7018881E8018883A2
S11301408FEF860FDFEFED1AFD0A6111E6CFDF9125
S1130150CF911F910F91FF90EF900895811114C0DA
S11301609091110180911001981711F180910D0166
S1130170815080930D01E92FF0E0EE5EFD4F808108
S11301809F5F90931101089590910F0180910E014A
S1130190981781F080910C01815080930C01E92F14
S11301A0F0E0EE5EFE4F80819F5F90930F01089513
S11301B080E0089580E00895811107C010920D0138
S11301C08091100180931101089510920C01809187
S11301D00E0180930F01089580910D01089580917F
S11301E00C0108951F920F920FB60F9211248F9352
S11301F09F93EF93FF9380910D018F5F80930D0187
S1130200809110019091C600E82FF0E0EE5EFD4F62
S113021090838F5F80931001FF91EF919F918F9155
S11302200F900FBE0F901F9018951F920F920FB64C
S11302300F9211248F939F93EF93FF9380910C015E
S11302408F5F80930C0180910E019091CE00E82F76
S1130250F0E0EE5EFE4F90838F5F80930E01FF917E
S1130260EF919F918F910F900FBE0F901F90189553
S1130270CF93DF93CDB7DEB7C95DD1090FB6F8943C
S1130280DEBF0FBECDBF699A719A8CE090E00E94E8
S1130290720D789487EA91E60197F1F700C00000A7
S11302A00E948A0DFE0131969E012A543F4F1192FD
S11302B0E217F307E1F79E012A543F4F682F792F85
S11302C0DE011296CE010696FB014081F9014193AD
S11302D09F01FB014191BF014D93A817B907A1F7F5
S11302E0E6EBF0E0EC0FFD1F7296DE01549686EB10
S11302F090E08C0F9D1F489621E121932D93E817E0
S1130300F907D9F7C654DF4F1882CA5BD04081E0A1
S1130310C554DF4F8883CB5BD04089831E828F8393
S113032080E00E94DC00F12CEE24E394F1E0EF1273
S11303300FC0BE016A547F4F80E00E9434042FE551
S113034083EE96E1215080409040E1F700C0000028
S11303500E94EC008823B1F08E010A541F4F9E01C5
S11303602F5F3F4F45EB50E0B90180E00E943A080F
S1130370833021F0853019F4E12C01C0E12C80E0B8
S11303800E94DC000E94EF008823B1F08E010A5421
S11303901F4F9E012F5F3F4F45EB50E0B90181E0B5
S11303A00E943A0881E00E94DC0041E050E065EBE5
S11303B0CE0101960E947900F394E4E6EF1540F42F
S11303C041E050E065EBCE0101960E947900F12CEA
S11303D087EA91E60197F1F700C00000A7CF6F927A
S11303E07F928F929F92AF92BF92CF92DF92EF92C1
S11303F0FF920F931F93CF93DF938C01EA0184E064
S113040090E00E94890E6880662009F446C06E015F
S1130410E12CF12CB8016A5F7F4F32C0A190BD90EE
S1130420AB1016C0E617F707C9F724E22E9DD001DA
S11304302F9DB00D11241196AC0FBD1FFC01AC0112
S11304404C5F5F4F2D9121934E175F07D9F729C059
S113045093942A5F3F4F4A5F5F4F981449F0D90144
S11304605396EC917E12F4CFF8013196DA01D6CF8F
S1130470BFEFEB1AFB0AE4E2CE0ED11CE61468F4DB
S1130480D60116968C90882099F3F8017080A60105
S11304904C5E5F4F9601912CE2CF2FEFDC01169654
S11304A02C93DF91CF911F910F91FF90EF90DF90EC
S11304B0CF90BF90AF909F908F907F906F90089552
S11304C0EF92FF920F931F93CF93DF9300D000D04E
S11304D0CDB7DEB72FEF298332E03A8337E63B838B
S11304E02C835D988C017C0124E0E20EF11CF80160
S11304F081918F018C839B819F5F9B8340E050E0BF
S113050064E0CE0101960E9479000E151F0579F76B
S113051080E00E94DC0083EC99E00197F1F700C0D1
S113052000005D9A0F900F900F900F90DF91CF9184
S11305301F910F91FF90EF9008952F923F924F9249
S11305405F926F927F928F929F92AF92BF92CF925F
S1130550DF92EF92FF920F931F93CF93DF9300D01C
S113056000D01F92CDB7DEB77C017A8369838A01FC
S11305708DE090E00E94890E1C01D80114965C91D4
S1130580552351F1F70160819801F80180E070E092
S1130590DD24D39489809A8005C07D2D8F5F3496A5
S11305A08517B1F096819613F9CFD70111964C9126
S11305B0119797814913F2CF12964C911297908517
S11305C04913ECCF13964C919185491731F3E6CF3B
S11305D09A8289827130A1F0E981FA8140804420B5
S11305E009F470C05F01FFEFAF1ABF0A512C680114
S11305F074E0C70ED11C3A822982342C452C4FC09A
S1130600D1010C5F1F4FA701F90181919F018D93C7
S1130610FA018191AF0113968C9313972017310738
S113062099F782E0D1011C968C934CC0AB81BC81BC
S11306302D90BC83AB83D4017D914D01271619F015
S1130640B0812B1207C0633008F063946F5F31965A
S1130650643061F773940496751459F1A7019801F5
S1130660F80147019C838B8360E0E0CFD9018D9131
S11306709D018193D4018D914D018383DA018D9184
S1130680AD018783C216D30689F773E0E981FA8145
S11306907487439484E2A80EB11C431489F0D501F5
S11306A014965C905520A9F3C5010696712C612C13
S11306B0D5CFB2E06B12EDCFE981FA814501D6CFF7
S11306C029803A80C1010F900F900F900F900F90E6
S11306D0DF91CF911F910F91FF90EF90DF90CF901A
S11306E0BF90AF909F908F907F906F905F904F904E
S11306F03F902F9008958F929F92AF92BF92CF9286
S1130700DF92EF92FF920F931F93CF93DF9300D06A
S113071000D0CDB7DEB7D82E5A01490181E08983D4
S11307206A83DB82CC82FA01E60FF11D818190E0BD
S11307300E94600240E050E064E0CE0101960E9415
S113074079006D2D660F660F40E050E0C5010E94F0
S1130750790040E050E066E0C4010E94790040E086
S113076050E066E0C8010E94790040E050E06C2D42
S1130770C7010E9479000F900F900F900F90DF91A6
S1130780CF911F910F91FF90EF90DF90CF90BF908A
S1130790AF909F908F900895EF92FF920F931F93C5
S11307A0CF93DF93CDB7DEB727970FB6F894DEBFAC
S11307B00FBECDBF7C01162FFA01C90123E02983A6
S11307C020812A8321812B8322812C8323812D83E1
S11307D06E830F830E94600240E050E067E0CE0128
S11307E001960E94790040E050E0612FC7010E9409
S11307F0790027960FB6F894DEBF0FBECDBFDF9108
S1130800CF911F910F91FF90EF900895CF93DF93B5
S113081000D000D000D0CDB7DEB7FC01CB0124E07E
S1130820298320812A8321812B8322812C83238184
S11308302D8321E02E830E94600240E050E065E0B9
S1130840CE0101960E94790040E050E061E0CE01C3
S113085006960E94790026960FB6F894DEBF0FBE66
S1130860CDBFDF91CF910895EF92FF921F93CF9365
S1130870DF93CDB7DEB72B970FB6F894DEBF0FBE6C
S1130880CDBF7B015D989FEF998392E09A839DE4AD
S11308909B838C8340E050E064E0CE0101960E948B
S11308A079008BE49DE10197F1F700C0000080E03E
S11308B00E94AE0080E00E94AE0080E00E94AE0084
S11308C080E00E94AE0085E0E6E0F1E0DE011596EE
S11308D001900D928A95E1F785E08A8784E28B87FF
S11308E014E040E050E065E0CE0105960E947900F6
S11308F080E00E94AE008F818F5F8F8383EC99E04C
S11309000197F1F700C00000115059F783ED90E30F
S11309100197F1F700C000005D9A83EC99E001971C
S1130920F1F700C0000040E050E062E0CE010A961A
S11309300E94790040E050E064E2C7010E9479001F
S113094083EC99E00197F1F700C0000080E00E9479
S1130950DC002B960FB6F894DEBF0FBECDBFDF913F
S1130960CF911F91FF90EF9008952F923F924F9255
S11309705F926F927F928F929F92AF92BF92CF922B
S1130980DF92EF92FF920F931F93CF93DF93CDB734
S1130990DEB72B970FB6F894DEBF0FBECDBF2C0188
S11309A05B017A013A832983672B89F080E090E028
S11309B010E06701C80ED91E80E00E94AE00D60187
S11309C08C931F5F812F90E08A159B0590F3013073
S11309D009F03BC1D201EC90EE2009F472C2812CE3
S11309E0912C312C1E82B1E0BF83222423948D826A
S11309F069807A80F301848010E0BD80AB2CB12C37
S1130A00BC82AB82720124E23D81239FE00CF11C85
S1130A101124D7011196A7014E5F5F4F670163E070
S1130A20C60ED11C570174E0A70EB11C85E0E80E78
S1130A30F11C2B813C81220F331F220F331F220F05
S1130A40331FEB81FC812E0F3F1F798668867F80E0
S1130A506B817C817A8369830C91812F90E0E88596
S1130A60F98574E0179FE00DF11D11246681601370
S1130A70CBC2FC01EE0FFF1FEE0FFF1F68857985C7
S1130A80E60FF71F7781FA0160817613BDC2FC017E
S1130A903296EE0FFF1FEE0FFF1F68857985E60F74
S1130AA0F71F7081F60160817613AEC2880F991F1B
S1130AB0880F991FE885F985E80FF91F9185F501DD
S1130AC080819813A1C2372C9FC2862F90E0F90130
S1130AD0E80FF91FEE0FFF1FEE0FFF1FE40DF51DCA
S1130AE0A885B9856C90E7816E122FC0F901E80FD3
S1130AF0F91F3296EE0FFF1FEE0FFF1FE40DF51DD9
S1130B00F0811196EC911197FE131FC0F901E80FC3
S1130B10F91F3296EE0FFF1FEE0FFF1FE40DF51DB8
S1130B20F1811296EC911297FE130FC0F901E80FB0
S1130B30F91FEE0FFF1FEE0FFF1FE40DF51D1396B7
S1130B409C918285981301C0922C6F5F761708F0F0
S1130B50BCCFE885F985AA85BB85332099F191102E
S1130B6063C03F0114E2A980BA801A9DF0011B9D65
S1130B70F00D1124E40DF51D7F5F7583D30180E032
S1130B8090E044E24A9D90014B9D300D1124AF0149
S1130B904B5F5F4F6D91FA017081F90114E0719F11
S1130BA0E00DF11D1124E40DF51DE80FF91F678315
S1130BB001968430910571F768847984312C21E0A1
S1130BC02E8338C0992081F168847984682D70E07F
S1130BD0D30134E0839EA00DB11D112416960C930D
S1130BE01697E4E249815A81E49FC001E59F900D84
S1130BF01124840D951DFC01228117962C931797BF
S1130C002381FB013296EE0FFF1FEE0FFF1FE60D4F
S1130C10F71D2083FC01848119968C938394D3015E
S1130C2014968C92912C06C01F5F811608F010CF89
S1130C3068847984BD81BF5FBD83F2018081B81768
S1130C4008F4D8CE7A82698201C01E82D201EC9067
S1130C50EE2009F43DC1E981FA81108160E070E081
S1130C6030E0D12C04E2FF24F394812F1D2D4F0199
S1130C70D82E15C11F2D822F90E0FA01E80FF91F1D
S1130C802F5F880D991DC180FC018081C81207C0A7
S1130C908FEF820F833008F0BDC1243060F3113030
S1130CA009F0F7C09A828982A981BA811496EC90DE
S1130CB0149715968C91032F10E0F201B4E23B9F38
S1130CC0E00DF11D1124968189135BC094E2909F7D
S1130CD0F001919FF00D1124E40DF51D9581E912A9
S1130CE050C0EE2009F49CC1E4E23E9FA00111240F
S1130CF0B201640F751FA980BA80485F5F4F440D2D
S1130D00551DD12C11C0F1902D91F21237C0915084
S1130D10D1F7D3946C5F7F4FB4E0AB0EB11C4C5F42
S1130D205F4FED1409F47CC1FB012781D5011696B0
S1130D309C911697291323C01796FA0193E0E3CFE9
S1130D40F1902D91F2121CC09F5F9630C9F7D39495
S1130D506A5F7F4FB6E0AB0EB11C4A5F5F4F8D15E3
S1130D6009F444C1F5012289DB0153969C912913AE
S1130D7008C0D5015396FA0191E0E2CF02C001C048
S1130D8000C084E2809FF001819FF00D1124E40DE6
S1130D90F51DE582A981BA8115968C9115978683F4
S1130DA014968C91882309F445C020E0C801880F6B
S1130DB0991F880F991F880F991F080F191F822FD9
S1130DC090E0E980FA80B4E02B9FE00CF11C112440
S1130DD0D7011696EC91A801480F591FBA01660F66
S1130DE0771F660F771F640D751DDB011796EC9353
S1130DF0F701A781FA013296EE0FFF1FEE0FFF1FD6
S1130E00E40DF51DA083DC011296AA0FBB1FAA0FE7
S1130E10BB1FA980BA80AA0DBB1D8C918183D70109
S1130E2019968C91FB0182872F5FD50114968C91C2
S1130E30281728F2E981FA818581882309F4D8C02A
S1130E40F4E23F9F9001112440E02D5E3F4F0CC01F
S1130E509D9191938150E1F74F5FA981BA811596D5
S1130E608C91481708F0C6C0842F90E0FC01EE0F67
S1130E70FF1FE80FF91FEE0FFF1FDF015296A98035
S1130E80BA80AA0DBB1DE20FF31FE40DF51D86E029
S1130E90DFCF3F5F6F5F7F4F94963E1571F01196E1
S1130EA08C9111978D11FBCE21E0069FA001079F25
S1130EB0500D1124440D551DEBCE9A8289821111D7
S1130EC09BC00F2EF5E0BF2EF02DEB1409F496C055
S1130ED041E04E0DD2014C93E981FA812481842FA3
S1130EE090E0F20114E2419FE00DF11D11242583ED
S1130EF0A981BA8115962C911597258314962C9166
S1130F00222309F445C050E09C01220F331F220F15
S1130F10331F220F331F280F391F852F90E0E980DC
S1130F20FA80B4E05B9FE00CF11C1124D701169603
S1130F30EC91B901680F791F8B01000F111F000F8D
S1130F40111F040D151DD8011796EC93F701A78105
S1130F50FB013296EE0FFF1FEE0FFF1FE40DF51D90
S1130F60A083DC011296AA0FBB1FAA0FBB1FA98086
S1130F70BA80AA0DBB1D8C918183D70119968C91DF
S1130F80F80182875F5FD50114968C91581728F277
S1130F90E981FA818581882399F1F4E24F9FA001C8
S1130FA0112460E04D5E5F4F0BC09D919193815081
S1130FB0E1F76F5FA981BA8115968C91681710F5D6
S1130FC0862F90E09C01220F331F820F931F880FFE
S1130FD0991FDC015296E981FA81AE0FBF1F840F7D
S1130FE0951FF201E80FF91F86E0DFCF80E029C0EA
S1130FF081E027C081E025C08E8123C081E021C02B
S113100081E01FC081E01DC0F701708160E0BB87F3
S1131010AA875BCD243008F42DCE9A82898244CEEF
S1131020882379F0B4E23B9FA0011124B201640F3C
S1131030751FA980BA804C5E5F4F440D551DD12C9D
S113104091CE2B960FB6F894DEBF0FBECDBFDF91C5
S1131050CF911F910F91FF90EF90DF90CF90BF90B1
S1131060AF909F908F907F906F905F904F903F9044
S11310702F9008952F923F924F925F926F927F929A
S11310808F929F92AF92BF92CF92DF92EF92FF9294
S11310900F931F93CF93DF93CDB7DEB7C55AD10912
S11310A00FB6F894DEBF0FBECDBF7B012A01490104
S11310B068016DB67EB6811106C00E94AE00813013
S11310C009F09CC10DC081E00E94AE0081E00E9445
S11310D0AE0081E00E94AE00813009F08FC10DC1E5
S11310E02DB63EB680E00E94AE0055245394580EAF
S11310F080E00E94AE00982E80E00E94AE00882E10
S11311000DB71EB7081B11090FB6F8941EBF0FBE0A
S11311100DBF0F5F1F4FC356DF4F19830883CD598F
S1131120D040E92CF12CEE0CFF1CEE0CFF1C2DB76B
S11311303EB72E193F090FB6F8943EBF0FBE2DBF20
S11311400DB71EB70F5F1F4FC156DF4F19830883BA
S1131150CF59D04058011E141F040CF085C400E080
S113116010E0412C80E00E94AE00F501E00FF11F79
S113117080834394042D10E00E151F059CF374C462
S113118080E00E94AE00D8018D938D01EA16FB0623
S1131190B9F78E010B5F1F4F7E01BBE0EB0EF11C14
S11311A080E00E94AE00F80181938F01EE15FF05E7
S11311B0B9F78820C1F0C356DF4F08811981CD5992
S11311C0D040EE24EA94E80CF12CFFEFEF1AFF0A6A
S11311D0E00EF11E80E00E94AE00D8018D938D01D7
S11311E0EA16FB06B9F759102CC081E0CF56DF4F41
S11311F08883C159D040CE018B579F4FCE56DF4FC5
S11312008883C259D04080589109CD56DF4F8883D6
S1131210C359D040CC56DF4F8882C459D040C356FE
S1131220DF4FB881CD59D040CB56DF4FB883C55975
S1131230D04041E050E065E084579F4F0E94790020
S113124056C081E0CF56DF4F8883C159D040CE5677
S1131250DF4F5882C259D040CD56DF4F9882C359D0
S1131260D040CC56DF4F8882C459D040C156DF4F9E
S1131270E881F981CF59D040E50DF11D818190E0DD
S11312800E94600240E050E064E0CE018F569F4F20
S11312900E947900692D660F660F40E050E0C15648
S11312A0DF4F88819981CF59D0400E94790040E076
S11312B050E066E0CE018B579F4F0E94790040E0DA
S11312C050E066E0CE0105960E94790040E050E0CF
S11312D0682DC356DF4F88819981CD59D0400E9433
S11312E07900BE016F5F7F4FC6010E9406040FB6EE
S11312F0F8943EBE0FBE2DBEAEC381E00E94AE0088
S1131300582E5E01E7E9AE0EB11C8E0105571F4F42
S1131310412CF5E0F41530F081E00E94AE00D501D7
S11313208C9305C081E00E94AE00F8018083439451
S1131330FFEFAF1ABF0A0F5F1F4F0F2EFCE02F2ED7
S1131340F02D4210E6CFA52CB12C0CE0A01AB10868
S11313501A141B049CF400E010E0412C81E00E946C
S1131360AE00E5E0F0E0EC0FFD1FE00FF11F80831D
S11313704394042D10E00A151B0584F3A401B6015F
S1131380CE0189569F4F0E94EF01A601B7010E942A
S11313909D02BC01DC011C96DC90FC01AE014B57A4
S11313A05F4F8C01045F1F4F0BC091919D932E17CB
S11313B03F07D9F74C5F5F4FF9012017310729F038
S11313C09F012C5F3F4FDA01F0CFCB010E94210F28
S11313D00F2EF4EFCF2EF02DC50CFE0135967F01B4
S11313E08E010F561F4F9E0129563F4FAE014B579A
S11313F05F4F60E08D2D0E947B032DC3833009F085
S113140040C080E00E94AE00898380E00E94AE006C
S11314108A8380E00E94AE008B8380E00E94AE004D
S11314208C8380E00E94AE00A82E80E00E94AE0073
S1131430082F9601A401B201C7010E94B5048130AE
S113144009F00AC3D60114968C91882309F406C3C3
S113145010E0B12C212F30E0220F331F220F331F55
S11314602A5F3F4F2C0D3D1D00E0A601B501C701C9
S11314700E94CC031F5FF6018481181758F383E0A0
S113148012C3843049F440E050E061E086E190E02A
S11314900E94790084E007C3853009F0D3C280E05C
S11314A00E94AE00CD55DF4F8883C35AD04080E000
S11314B00E94AE00898380E00E94AE008A8380E0AF
S11314C00E94AE008B8380E00E94AE008C83D70123
S11314D08C91853008F0C4C2F6019481933008F0F1
S11314E0C1C2811139C091C0C156DF4F0881CF59A3
S11314F0D040013059F5CF55DF4F08811981C15AC9
S1131500D040012B19F1AA0CBB1CC501880F991FEF
S1131510880F991F880F991FA80EB91E8501095EAF
S11315201F4F080D191DCC55DF4F28813981C45A2E
S1131530D040A20EB31EA80CB91C80E00E94AE00DD
S1131540D8018D938D01AA15BB05B9F73394F70122
S11315508081381600F152C0312CC156DF4F1882F9
S1131560CF59D0400F2EF4E22F2EF02DCD55DF4F62
S11315701881C35AD040012F10E0CF55DF4F198393
S11315800883C15AD040095E1F4FCC55DF4F1983E1
S11315900883C45AD040A32CB12C9981F701239C11
S11315A0E00DF11D1124818198139ECF2A9CF00136
S11315B02B9CF00D1124EE0DFF1D92818A8198134E
S11315C093CF2A9CF0012B9CF00D1124EE0DFF1DEE
S11315D093818B81981388CF2A9CF0012B9CF00D6A
S11315E01124EE0DFF1D9C81848198137DCF01E0B1
S11315F0C156DF4F0883CF59D0407DCFC156DF4F4E
S11316001881CF59D0401111A3C02DB63EB6C35690
S1131610DF4F39822882CD59D040CD55DF4F088124
S1131620C35AD040202E312C90E0880F991FFC0122
S1131630EE0FFF1FEE0FFF1FEE0FFF1F8E0F9F1FFA
S1131640F401E80FF91F8981838BD7018C9190E015
S1131650880F991FFC01EE0FFF1FEE0FFF1FEE0F07
S1131660FF1F8E0F9F1FF401E80FF91F8A81848BDF
S11316708C9190E0880F991FFC01EE0FFF1FEE0F75
S1131680FF1FEE0FFF1F8E0F9F1FF401E80FF91FBE
S11316908B81858B8C9190E0880F991FFC01EE0F54
S11316A0FF1FEE0FFF1FEE0FFF1F8E0F9F1FF40192
S11316B0E80FF91F8C81868B2114310409F4DCC1F5
S11316C0A12CB12CE3ECF9E03197F1F700C0000054
S11316D0D7010C9110E0000F111FC801880F991F4A
S11316E0880F991F880F991F080F191F095E1F4F34
S11316F00A0D1B1D080D191D80E00E94AE00F801A3
S11317008083FFEFAF1ABF0A2A143B04D9F6B4C191
S11317106D91F9017081FA0104E0709FE00DF11DF3
S11317201124EE0DFF1DE80FF91F67830196843025
S1131730910571F71F5FD7011C93C356DF4F2880B3
S11317403980CD59D0400FB6F8943EBE0FBE2DBEA1
S1131750D701BC90BB2009F46AC19980B70140E06D
S113176050E000E0A12C0F2EF4E28F2EF02D332454
S113177033944FC1A32C812F90E0E1E0F0E0EC0F13
S1131780FD1FE80FF91F1F5F820F931F2080FC01CC
S11317908181281207C08FEF810F833008F07BC14D
S11317A0143048F3F1E0AF122EC1202E312CC35671
S11317B0DF4F39822882CD59D040F70114E2019FCE
S11317C0E00DF11D11243581332349F1D6014C91EB
S11317D0F701B4E20B9FE00DF11D112480E050E00D
S11317E011E005C0512F8F5F34968317B1F09781B4
S11317F04913F9CFD60111962C911197908529138D
S1131800F2CF218512969C9112972913ECCF228551
S113181013969C91291731F3E6CF5111DBC0960141
S1131820DE01119680E090E044E2C356DF4FE88188
S1131830F981CD59D0404E9F80014F9F100D112446
S1131840A701400F511FFA013596C156DF4FF983A6
S1131850E883CF59D040F901B1909F01C156DF4FC1
S1131860E881F981CF59D0405081F80144E0549F78
S1131870E00DF11D1124EE0DFF1DE80FF91FB782D5
S1131880F601B480AD9044E0B49EE00DF11D112446
S1131890E80FF91FA682019684309105E1F6B3940E
S11318A0D6011496BC9284E2C356DF4F2880398057
S11318B0CD59D040829DF001839DF00D1124EE0D91
S11318C0FF1D85818F5F8583D701BC90B11082C0D5
S11318D0AEC0182D8A2F90E0F601E80FF91FAF5F14
S11318E0820F931FB081FC018181B81307C08FEF71
S11318F08A0F833008F0D3C0A43060F3113009F0AC
S113190061C0D60114964C91442309F1F701B4E265
S11319103B9EE00DF11D11245A817B810C8180E0F6
S113192060E011E005C0612F8F5F3496841769F081
S113193097819911F9CF90855913F6CF9185791331
S1131940F3CF9285091779F3EFCF611170C09E012F
S11319502F5F3F4F80E090E0E32DF0E0C356DF4F70
S1131960F983E883CD59D040F4E23F9EA0011124CD
S1131970D701A40FB51F1596C356DF4F88809980F1
S1131980CD59D040F901B1909F01EC911A0104E0C6
S1131990E09F200C311C1124F101EE0DFF1DE80F16
S11319A0F91FB78201968430910531F784E2889D4E
S11319B0F001899DF00D1124EE0DFF1D85818F5FCF
S11319C0858335C033944F5F5F4F6C5D7F4F3B140D
S11319D068F02DC0D6010C9140E050E0312C10E0AD
S11319E00F2EF4E2AF2EF02D88248394FB01218185
S11319F0021384CFA1E0A49E9001A59E300D112472
S1131A002E0D3F1D74CF0F5F4F5F5F4F94960B15E4
S1131A1071F011962C9111979212C4CE11E0849E0C
S1131A209001859E300D11242E0D3F1DB4CE01E092
S1131A309E012F5F3F4FA601B201C7010E94CC0354
S1131A4085E031C0863039F480E00E94AE0080E049
S1131A500E94AE0028C027C083E025C083E023C0D5
S1131A6080E021C080E01FC08E010B571F4F78011A
S1131A70F6E0EF0EF11C84CBD7011C91D60180E077
S1131A8090E0E4E21E9FA00111249701240F351F6A
S1131A902B5F3F4F3DCE143008F46CCE86CEA4307D
S1131AA008F417CF2ECF0FB6F8947EBE0FBE6DBECE
S1131AB0CB55DF4F0FB6F894DEBF0FBECDBFDF911D
S1131AC0CF911F910F91FF90EF90DF90CF90BF9037
S1131AD0AF909F908F907F906F905F904F903F90CA
S1131AE02F9008959093C5008093C40042E24093E0
S1131AF0C00038E93093C1002EE02093C2009093D7
S1131B00CD008093CC004093C8003093C90020934B
S1131B10CA0008950F931F93CF93DF93CDB7DEB719
S1131B2060970FB6F894DEBF0FBECDBF7894279AA6
S1131B303C98269A539A559A5B982E9887EA91E690
S1131B400197F1F700C000002E9A9FE3EDE0F3E067
S1131B509150E040F040E1F700C000008091100196
S1131B609091110190931201809311015D982FEFD0
S1131B70298392E09A838EEF8B8334E33C832D8315
S1131B809E838F8335E3388729879A878B8736E34B
S1131B903C872D879E878F8787E3888B84E090E03E
S1131BA00E94890E8C0140E050E064E070E0CE01B8
S1131BB001960E94790087EA91E60197F1F700C047
S1131BC0000080910D0190910E0183309105ECF39A
S1131BD080911001909111010197909312018093CB
S1131BE0110180E090E00E94AE00F801808340E0A3
S1131BF050E064E070E0CE0105960E94790087EA27
S1131C0091E60197F1F700C0000080910D019091D9
S1131C100E0183309105ECF3809110019091110134
S1131C200197909312018093110180E090E00E944B
S1131C30AE00F801818340E050E064E070E0CE0142
S1131C4009960E94790087EA91E60197F1F700C0AE
S1131C50000080910D0190910E0183309105ECF309
S1131C60809110019091110101979093120180933A
S1131C70110180E090E00E94AE00F801828340E010
S1131C8050E064E070E0CE010D960E94790087EA8E
S1131C9091E60197F1F700C0000080910D01909149
S1131CA00E0183309105ECF38091100190911101A4
S1131CB00197909312018093110180E090E00E94BB
S1131CC0AE00F8018383FFEB27E289E0F150204066
S1131CD08040E1F700C0000040E050E064E070E0C4
S1131CE0C8010E9479009FE3EDE0F3E09150E040E9
S1131CF0F040E1F700C000005D9AC80160960FB69D
S1131D00F894DEBF0FBECDBFDF91CF911F910F912D
S1131D1008950F931F93CF93DF938230910510F4AE
S1131D2082E090E0E0911403F091150320E030E0AC
S1131D30A0E0B0E0309719F1408151810281138114
S1131D4048175907C8F08417950769F4109731F0BC
S1131D5012960C93129713961C9327C000931403A6
S1131D601093150322C02115310519F042175307AA
S1131D7018F49A01BD01EF01DF01F801DBCF211551
S1131D803105F9F0281B390B2430310580F48A81A0
S1131D909B816115710521F0FB019383828304C04B
S1131DA09093150380931403FE01329644C0FE0100
S1131DB0E20FF31F819391932250310939832883D1
S1131DC03AC02091120330911303232B41F4209144
S1131DD002013091030130931303209312032091E5
S1131DE00001309101012115310541F42DB73EB7B1
S1131DF04091040150910501241B350BE09112031D
S1131E00F0911303E217F307A0F42E1B3F0B2817DE
S1131E10390778F0AC014E5F5F4F2417350748F05F
S1131E204E0F5F1F509313034093120381939193BA
S1131E3002C0E0E0F0E0CF01DF91CF911F910F915C
S1131E400895CF93DF93009709F481C0FC01329782
S1131E5013821282A0911403B0911503109781F498
S1131E6020813181820F931F20911203309113033B
S1131E702817390751F5F0931303E093120367C051
S1131E80ED0120E030E0CE17DF0740F44A815B81AA
S1131E909E0141155105F1F0EA01F5CFD383C283C8
S1131EA040815181840F951FC817D90759F488813F
S1131EB09981840F951F0296918380838A819B81E7
S1131EC0938382832115310529F4F0931503E0935C
S1131ED014033DC0E901FB83EA8349915991C40F7E
S1131EE0D51FEC17FD0761F480819181840F951F44
S1131EF00296E90199838883828193819B838A83F3
S1131F00E0E0F0E012968D919C911397009719F000
S1131F10FD01DC01F7CF8D919C9111979D012E5FFE
S1131F203F4F820F931F2091120330911303281700
S1131F30390769F4309729F41092150310921403A9
S1131F4002C013821282B0931303A0931203DF9191
S10B1F50CF910895F894FFCF2E
S10F1F58000016032000FF0368FE7F0059
S9030000FC
