S01C00006E75625F6C6F6E675F72616E67655F33323870622E737265637A
S11300000C945A000C9477000C9477000C947700AD
S11300100C9477000C9477000C9477000C94770080
S11300200C9477000C9477000C9477000C94770070
S11300300C9477000C9477000C9477000C94770060
S11300400C9477000C9477000C94E6000C947700E1
S11300500C9477000C9477000C9477000C94770040
S11300600C9477000C9477000C9477000C94770030
S11300700C940D010C9477000C9477000C94770089
S11300800C9477000C9477000C9477000C94770010
S11300900C9477000C9477000C9477000C94770000
S11300A00C9477000C9477000C9477000C947700F0
S11300B00C94770011241FBECFEFD8E0DEBFCDBF74
S11300C011E0A0E0B1E0E8EDF3E002C005900D928C
S11300D0A630B107D9F723E0A6E0B1E001C01D9234
S11300E0A031B207E1F70E9434010C94EA010C94A8
S11300F00000EF92FF920F931F93CF93DF93662339
S113010031F16150E82EF92EA8ECB0E00EEC10E0CD
S1130110E0ECF0E026EC30E001C0682F4115510519
S113012041F4808185FFFDCFE7018881E90188835F
S113013007C08C9185FFFDCFE7018881E8018883A2
S11301408FEF860FDFEFED1AFD0A6111E6CFDF9125
S1130150CF911F910F91FF90EF900895811119C0D5
S113016090910D0180910C01981761F12091080183
S1130170309109012150310930930901209308017C
S1130180E92FF0E0E25FFD4F80819F5F90930D01C6
S1130190089590910B0180910A019817A9F020917C
S11301A00601309107012150310930930701209352
S11301B00601E92FF0E0E25FFE4F80819F5F90939C
S11301C00B01089580E0089580E008951F920F9236
S11301D00FB60F9211248F939F93EF93FF93809107
S11301E008019091090101969093090180930801F7
S11301F080910C019091C600E82FF0E0E25FFD4F82
S113020090838F5F80930C01FF91EF919F918F9169
S11302100F900FBE0F901F9018951F920F920FB65C
S11302200F9211248F939F93EF93FF938091060174
S113023090910701019690930701809306018091A4
S11302400A019091CE00E82FF0E0E25FFE4F908328
S11302508F5F80930A01FF91EF919F918F910F908F
S11302600FBE0F901F901895CF93DF93CDB7DEB7D5
S1130270C55BD1090FB6F894DEBF0FBECDBF699A36
S1130280719A8CE090E00E94D2017894719A87EA86
S113029091E60197F1F700C0000060910E037091A0
S11302A00F0325EB30E0AE014F5F5F4F81E00E940A
S11302B063019FE322E48FE0915020408040E1F706
S11302C000C00000EACFDF92EF92FF920F931F93DA
S11302D0CF93DF93CDB7DEB72E970FB6F894DEBF7A
S11302E00FBECDBF8B017A01D22E5D989FEF99830B
S11302F092E09A839B838C8340E050E064E0CE01DB
S113030001960E94790080E00E94AE0085E0E0E062
S1130310F1E0DE01159601900D928A95E1F783E0F4
S11303208A87F80180818B8781818C8782818D8780
S113033083818E8714E040E050E065E0CE010596AD
S11303400E94790080E00E94AE008F818F5F8F83CE
S1130350115089F783EC99E00197F1F700C0000090
S11303605D9AE3ECF9E03197F1F700C0000040E05A
S113037050E065E0CE010A960E94790040E050E02A
S11303806D2DC7010E9479002E960FB6F894DEBF3A
S11303900FBECDBFDF91CF911F910F91FF90EF90D2
S11303A0DF9008959093C5008093C40042E2409387
S11303B0C00038E93093C1002EE02093C20090932E
S11303C0CD008093CC004093C8003093C9002093A3
S10B03D0CA000895F894FFCF60
S10903D8FF0368FE7F0034
S9030000FC
