S01700004763634170706C69636174696F6E312E737265635B
S11300000C9434000C9446000C9446000C94460066
S11300100C9446000C9446000C9446000C94460044
S11300200C9446000C9446000C9446000C94460034
S11300300C9446000C9446000C9446000C94460024
S11300400C9446000C9446000C9417010C94460042
S11300500C9446000C9446000C9446000C94460004
S11300600C9446000C94460011241FBECFEFD8E038
S1130070DEBFCDBF21E0A0E0B1E001C01D92A238F7
S1130080B207E1F70E94DF000C9426020C940000F2
S11300909093C5008093C40082E28093C00088E9F5
S11300A08093C1008EE08093C20008950F931F9344
S11300B0CF93DF9300D000D0CDB7DEB70E94A60166
S11300C006EC10E0F801608369897A898B899C8940
S11300D00E94A601F80160830F900F900F900F907B
S11300E0DF91CF911F910F9108959091010180911B
S11300F00001981769F0E92FF0E0EE5FFE4F808170
S11301009F5F1AF0909301010895109201010895E0
S113011080E00895399A3A9A3B9A3C9A3D9A089518
S11301208130910529F58DE790E0419AE1EEF4E004
S11301303197F1F700C000004198429AE1EEF4E0F3
S11301403197F1F700C000004298439AE1EEF4E0E1
S11301503197F1F700C000004398449AE1EEF4E0CF
S11301603197F1F700C0000044980197F1F6089523
S1130170029721F58DE790E0449AE1EEF4E031979F
S1130180F1F700C000004498439AE1EEF4E031979F
S1130190F1F700C000004398429AE1EEF4E0319791
S11301A0F1F700C000004298419AE1EEF4E0319783
S11301B0F1F700C0000041980197F1F60895789492
S11301C08CE090E00E9448000E948A000F2EFDEC13
S11301D0CF2EFCECDF2EFCE8EF2EFFE3FF2EF02DFC
S11301E0C701B6010E9456002DEC3CEC4CEC5DE3DB
S11301F0C701B6010E943A016B017C010E9475009F
S11302008F3629F481E090E00E94900006C0833686
S113021021F482E090E00E9490002FE38DE093E0CF
S1130220215080409040E1F700C00000D9CF1F92D8
S11302300F920FB60F9211248F939F93EF93FF9316
S1130240809100019091C600E82FF0E0EE5FFE4F30
S113025090838F5F1AF08093000102C01092000116
S1130260FF91EF919F918F910F900FBE0F901F9070
S113027018955058BB27AA270E9451010C94EC01F1
S11302800E94DE0138F00E94E50120F039F49F3F1E
S113029019F426F40C94DB010EF4E095E7FB0C94BE
S11302A0D501E92F0E94FD0158F3BA1762077307BD
S11302B08407950720F079F4A6F50C941F020EF438
S11302C0E0950B2EBA2FA02D0B01B90190010C0162
S11302D0CA01A0011124FF27591B99F0593F50F47A
S11302E0503E68F11A16F040A22F232F342F4427D2
S11302F0585FF3CF469537952795A795F0405395CA
S1130300C9F77EF41F16BA0B620B730B840BBAF099
S11303109150A1F0FF0FBB1F661F771F881FC2F704
S11303200EC0BA0F621F731F841F48F48795779518
S11303306795B795F7959E3F08F0B0CF9395880FD2
S113034008F09927EE0F9795879508950E94050266
S113035088F09F5798F0B92F9927B751B0F0E1F082
S1130360660F771F881F991F1AF0BA95C9F714C032
S1130370B13091F00E941F02B1E008950C941F0265
S1130380672F782F8827B85F39F0B93FCCF386956B
S113039077956795B395D9F73EF4909580957095C8
S11303A061957F4F8F4F9F4F089597F99F6780E81E
S11303B070E060E008959FEF80EC089500240A94B3
S11303C01616170618060906089500240A9412162C
S11303D01306140605060895092E0394000C11F45F
S11303E0882352F0BB0F40F4BF2B11F460FF04C00C
S11303F06F5F7F4F8F4F9F4F089557FD9058440F65
S1130400551F59F05F3F71F04795880F97FB991F6F
S113041061F09F3F79F0879508951216130614062C
S1130420551FF2CF4695F1DF08C0161617061806B9
S1130430991FF1CF86957105610508940895E89494
S1130440BB2766277727CB0197F90895F894FFCF48
S9030000FC
